:020000040800F2
:10000000009800246D030008872100082F210008B4
:1000100085210008610500089F2A000800000000F3
:10002000000000000000000000000000B102000815
:10003000630500080000000005030008C92300084C
:100040008703000887030008870300088703000868
:100050008703000887030008870300088703000858
:100060008703000887030008870300088703000848
:100070008703000887030008870300088703000838
:100080008703000887030008870300088703000828
:100090008703000887030008870300088703000818
:1000A0008703000887030008870300088703000808
:1000B00087030008870300088703000887030008F8
:1000C00087030008870300088703000887030008E8
:1000D00087030008870300088703000887030008D8
:1000E000650500088703000800000000870300087A
:1000F00087030008870300088703000887030008B8
:1001000087030008870300088703000887030008A7
:100110008703000887030008870300088703000897
:100120008703000887030008870300088703000887
:100130008703000887030008870300088703000877
:1001400000000000000000000000000000000000AF
:100150008703000887030008870300088703000857
:100160008703000887030008870300088703000847
:1001700087030008870300088703000800000000C9
:100180008703000887030008870300088703000827
:100190008703000887030008870300088703000817
:1001A0008703000887030008870300088703000807
:1001B00087030008870300088703000887030008F7
:1001C00087030008870300088703000887030008E7
:1001D00087030008870300088703000887030008D7
:1001E00087030008870300088703000887030008C7
:1001F00087030008870300088703000887030008B7
:1002000087030008870300088703000887030008A6
:100210008703000887030008870300088703000896
:100220008703000887030008870300080000000018
:100230008703000887030008000000008703000808
:100240008703000887030008870300088703000866
:100250008703000887030008870300088703000856
:100260008703000887030008870300088703000846
:1002700087030008870300088703000800000000C8
:1002800087030008870300088703000800000000B8
:100290000000000087030008DFF810D000F002F92A
:1002A0000048004759300008AFF300800098002450
:1002B0002B4B19680868B0E8F04F80F30988BFF34A
:1002C0006F8F4FF0000080F311887047000000002E
:1002D00006480068006880F3088862B661B6BFF31C
:1002E0004F8FBFF36F8F00DF00BF00BF08ED00E04E
:1002F000DFF80C00016841F470010160704700BF35
:1003000088ED00E0EFF30980BFF36F8F144B1A689C
:100310001EF0100F08BF20ED108A20E9F04F10608A
:1003200008B44FF0500072B680F31188BFF34F8FBE
:10033000BFF36F8F62B603F0F5FB4FF0000080F360
:10034000118808BC19680868B0E8F04F1EF0100F5B
:1003500008BFB0EC108A80F30988BFF36F8F704735
:1003600028000024EFF3058070470000064880470E
:1003700006480047FEE7FEE7FEE7FEE7FEE7FEE78A
:10038000FEE7FEE7FEE7FEE7E1230008990200082A
:100390002DE9F05F0546002092469B4688460646BA
:1003A000814640241BE0284641464746224600F04D
:1003B00069F853465A46C01A914110D3114618465F
:1003C000224600F050F82D1A67EB01084F462246EE
:1003D0000120002100F047F817EB00094E41201ED4
:1003E000A4F10104DFDC484631462A464346BDE815
:1003F000F09F40EA01039B0703D009E008C9121FE0
:1004000008C0042AFAD203E011F8013B00F8013BCE
:10041000521EF9D27047D2B201E000F8012B491EFA
:10042000FBD270470022F6E710B513460A46044691
:100430001946FFF7F0FF204610BD30B50B460146C8
:1004400000202022012409E021FA02F59D4205D373
:1004500003FA02F5491B04FA02F52844151EA2F11D
:100460000102F1DC30BD202A04DB203A00FA02F15F
:10047000002070479140C2F1200320FA03F3194392
:1004800090407047202A04DB203A21FA02F0002134
:10049000704721FA02F3D040C2F120029140084394
:1004A00019467047064C074D06E0E06840F001032E
:1004B00094E8070098471034AC42F6D3FFF7F0FEFB
:1004C00078450008984500081CB501F0A7F98E2171
:1004D00002461A4802F0E2FB03F002F9042100226E
:1004E000084603F0E5FB164CA06018B115489821AA
:1004F00002F0D4FB03220021012003F0D9FBE060CD
:1005000018B111489F2102F0C9FB0D4902200023B8
:10051000091D0202CDE900010F480CA103F0C6FD40
:10052000012803D10D48AB2102F0B8FB206803F08D
:10053000E7F9BDE81C4003F011B900005C44000875
:100540001800002430450008E84400084C45445F8A
:100550005461736B0000000031210008A0440008C2
:10056000FEE7704738B5EFF31184502072B680F380
:100570001188BFF34F8FBFF36F8F4FF0B04562B656
:10058000D5F88800800414D50C4800230A496A462F
:10059000006803F0D7FC009838B109494FF080504B
:1005A0000860BFF34F8FBFF36F8F4FF40050C5F853
:1005B000880084F3118838BD000000242000002446
:1005C00004ED00E072B6FEE72DE9F84F03247D4DFF
:1005D00000234FF001094FF0B04B4FF00F0AE9E054
:1005E00009FA03F73A4076D00E7906F00306012E99
:1005F00001D0022E18D1D0F808C04FEA430ECE68C1
:1006000004FA0EF82CEA080C06FA0EF646EA0C0676
:100610008660D0F804C00E792CEA070CC6F30016E9
:100620009E4046EA0C0646600E79F643B6070BD0AC
:10063000C6684FEA43088F6804FA08FC26EA0C06ED
:1006400007FA08F73743C7600E7906F00306022E53
:1006500012D1DE080F694FEA437C00EB8606B646EE
:10066000366A4FEADC6C0AFA0CF807FA0CF726EA4D
:1006700008063743CEF820700F7906684FEA430822
:1006800007F0030704FA08FC07FA08F726EA0C0645
:10069000374307604E6816F4403F1CD04A4E376817
:1006A00047F00207376036689F0706F0020600969B
:1006B00023F0030606F1B046B6463F0FD6F80864AD
:1006C000DFF808810AFA07FC404526EA0C0603D148
:1006D0004FF0000C41E06CE0DFF8F4C0604502D15F
:1006E0004FF0010C39E0DFF8ECC0604502D14FF06B
:1006F000020C32E0DFF8E0C0604502D14FF0030C9D
:100700002BE0DFF8D8C0604502D14FF0040C24E0A4
:10071000DFF8CCC0604502D14FF0050C1DE0DFF8DA
:10072000C4C0604502D14FF0060C16E0DFF8B8C037
:10073000604502D14FF0070C0FE0DFF8B0C0604514
:1007400002D14FF0080C08E0DFF8A4C0604502D1E8
:100750004FF0090C01E04FF00A0C0CFA07FC4CEAD0
:10076000060CCEF808C44F68DBF80060FF0226EAEA
:10077000020600D516435F46CBF80060D1F804C0EE
:10078000DBF804605FEA8C2C26EA020600D51643EB
:100790007E606E684F6826EA0206BF0300D51643E6
:1007A0006E602E684F6826EA0206FF0300D51643E6
:1007B0002E605B1C0A6832FA03F67FF411AFBDE8C5
:1007C000F88F000080000058F444025800000258DE
:1007D0000004025800080258000C02580010025889
:1007E0000014025800180258001C02580020025839
:1007F000002402580AB1816170470904FBE7000038
:1008000001480068000C70470010005C01488068D7
:10081000704700000C0000240248816802781144EF
:10082000816070470C000024032010B500F086F8AA
:1008300000F0F4FF0F4A104914681368C4F3032250
:1008400003F00F038A5CC95C02F01F0201F01F0174
:10085000D0400A4A20FA01F11160094908600F20CE
:1008600000F010F808B1012010BD00F02BF80020B6
:1008700010BD0000184402589443000808000024EA
:100880000400002470B50D4D04462878A0B14FF443
:100890007A71B1FBF0F00A490968B1FBF0F001F0A0
:1008A000F1FA48B9102C07D200222146501E00F060
:1008B00025F800206C6070BD012070BD0C00002484
:1008C00004000024054808B5016841F002010160F8
:1008D000006800F00200009008BD0000F4440258D7
:1008E000002809DB410900F01F028900012001F105
:1008F000E0219040C1F80001704700000E4BF0B4B9
:100900001B680D46C3F30223C3F10706042E00D96A
:100910000426191D072901D2002300E0DB1E012453
:1009200004FA06F19C40491E2940641E9940144077
:100930002143F0BC02F0C2B90CED00E0064900F022
:10094000070210B54FF6FF040868044B204040EA48
:1009500002201843086010BD0CED00E00000FA050D
:10096000134970B50A68D243520705D5096801F0EA
:100970000701814213D118E00A6822F007020243FE
:100980000A60FFF743FF0A4D4FF47A760446083DAC
:1009900007E000BFFFF73AFF001BB04201D901207A
:1009A00070BD2868C0438004F4D4002070BD0000EE
:1009B0000C48025810B500F0EBFE05490968054ADD
:1009C000C1F30211515C01F01F01C84010BD0000CD
:1009D0002044025894430008494930B5484C0B1D47
:1009E0000A68143409681D68246802F00303C5F31B
:1009F0000012C1F30531C4F3CC04002914FB02F248
:100A000000EE102AF8EE400A75D03F4A9FED3D1ADD
:100A1000B7EE000A6BB1DFED3D1A012B01D0022BBE
:100A200064D002EE101A1168F8EE422A81EEA22A72
:100A300021E0334C283C23689B0612D5344B2468B4
:100A400001EE901A1168C4F3C104F8EE612AE34084
:100A500001EE903AC1F30801F8EE611A81EEA22A84
:100A60000BE001EE901ADFED2B2A00BFF8EE611AC1
:100A7000116882EEA12AC1F3080101EE901A1168F3
:100A8000F8EE611A40EE811A71EE800A62EE200AD9
:100A9000C1F3462101EE101AB8EE411A31EE001AE8
:100AA000C0EE811ABCEEE11A80ED001A1168C1F3A4
:100AB000064101EE101AB8EE411A31EE001AC0EEEE
:100AC000811ABCEEE11A80ED011A1168C1F30661CA
:100AD00001EE101AB8EE411A31EE000A80EE801ACB
:100AE000BCEEC10A80ED020A30BD04E001EE901AAE
:100AF000DFED092ABAE70021016041608160F3E778
:100B00002844025800000039384402580024744A2E
:100B10000090D0030024744C20BCBE4B494930B532
:100B2000484C0B1D0A681C3409681D68246802F0D3
:100B30000303C5F30022C1F30551C4F3CC0400291B
:100B400014FB02F200EE102AF8EE400A75D03F4A7C
:100B50009FED3D1AB7EE000A6BB1DFED3D1A012B98
:100B600001D0022B64D002EE101A1168F8EE422A6E
:100B700081EEA22A21E0334C283C23689B0612D543
:100B8000344B246801EE901A1168C4F3C104F8EEE6
:100B9000612AE34001EE903AC1F30801F8EE611AD0
:100BA00081EEA22A0BE001EE901ADFED2B2A00BFA6
:100BB000F8EE611A116882EEA12AC1F3080101EE74
:100BC000901A1168F8EE611A40EE811A71EE800AEF
:100BD00062EE200AC1F3462101EE101AB8EE411A66
:100BE00031EE001AC0EE811ABCEEE11A80ED001A57
:100BF0001168C1F3064101EE101AB8EE411A31EE48
:100C0000001AC0EE811ABCEEE11A80ED011A1168DB
:100C1000C1F3066101EE101AB8EE411A31EE000A76
:100C200080EE801ABCEEC10A80ED020A30BD04E0FD
:100C300001EE901ADFED092ABAE700210160416058
:100C40008160F3E72844025800000039404402580C
:100C50000024744A0090D0030024744C20BCBE4B86
:100C60002DE9FC5F044650F8241B002500902E4619
:100C70000801FE4FDFF8F8831DD5606E50B1B0F566
:100C8000801F0CD0B0F5001F0ED0B0F5401F1DD056
:100C900001250FE0386840F40030386016E002218A
:100CA000201D01F071FA03E00098022101F0FCFA26
:100CB00005000BD02E462088C00523D5606D052881
:100CC0001ED2DFE800F00C11161B1B00626ED8F874
:100CD000001021F440111143C8F80010EBE7386808
:100CE00040F40030386009E00021201D01F04CFA8A
:100CF00003E00098002101F0D7FA05466DB100E04D
:100D000001252E462088800528D5A06D80281ED07C
:100D10000CDC90B140280ED114E0626DD8F80010C0
:100D200021F007011143C8F80010EBE7C02813D0E9
:100D3000B0F5807F10D001250FE0386840F4003016
:100D4000386009E00021201D01F01EFA03E0009840
:100D5000002101F0A9FA054695B12E462088DFF85A
:100D60001093400509F108092CD5D4F8A400B0F57A
:100D7000800F20D00DDCA0B1B0F5001F0FD115E021
:100D8000A26DD8F8001021F4E0711143C8F80010EA
:100D9000E4E7B0F5C00F13D0B0F5000F10D0012577
:100DA0000FE0386840F40030386009E00021201D71
:100DB00001F0EAF903E00098002101F075FA054618
:100DC00075B12E46208800052DD5D4F8A800B0F1C5
:100DD000007F21D00EDCA8B1B0F1807F10D116E0E9
:100DE000D4F8A420D9F8001021F460011143C9F807
:100DF0000010E7E7B0F1407F13D0B0F1806F10D062
:100E000001250FE0386840F40030386009E0002127
:100E1000201D01F0B9F903E00098002101F044FA27
:100E200005466DB12E46206880011FD5A06CD8B153
:100E300010280FD0202812D0302815D0012514E01A
:100E4000D4F8A820D9F8001021F0E0611143C9F8C6
:100E50000010E8E7386840F40030386004E0022110
:100E6000201D01F091F905466DB12E462088C00481
:100E70002BD5E06DB0F5005F20D00DDCA0B1B0F552
:100E8000805F0FD115E07A48A26C001F016821F045
:100E9000300111430160E9E7B0F5405F13D0B0F5D0
:100EA000804F10D001250FE0386840F400303860E2
:100EB00009E00021201D01F067F903E000980021FE
:100EC00001F0F2F9054685B12E462088800429D527
:100ED000206EB0F5403F23D010DC08B3B0F5803F62
:100EE00014D0B0F5003F0FD115E0E26DD8F8001036
:100EF00021F4E0411143C8F80010E6E7B0F5802F77
:100F00000ED0B0F5A02F0BD001250AE00121201D45
:100F100001F03AF903E00098012101F0C5F9054616
:100F20008DB12E46208840042AD5D4F8AC00B0F10B
:100F3000405F23D010DC08B3B0F1805F14D0B0F173
:100F4000005F0FD115E0226ED8F8001021F4E021E7
:100F50001143C8F80010E5E7B0F1804F0ED0B0F1B2
:100F6000A04F0BD001250AE00121201D01F00CF952
:100F700003E00098012101F097F905466DB12E4676
:100F8000208800041FD5E06ED8B1B0F1805F0ED08C
:100F9000B0F1005F10D0012514E0D4F8AC20D9F8EE
:100FA000001021F0E0411143C9F80010E8E738686B
:100FB00040F40030386004E00121201D01F0E4F825
:100FC00005466DB12E462068C0011ED5606CD0B1BB
:100FD00001280ED0022811D0032814D0012513E0D7
:100FE000E26ED8F8001021F040511143C8F800100B
:100FF000E9E7386840F40030386004E00221201D41
:1010000001F0C2F8054685B12E462068DFF85CB0D5
:101010004002ABF11C0B57D51648016841F48071B2
:101020000160FFF7F3FB82460EE01148626C001F7F
:10103000016821F0030111430160E6E7FFF7E6FBD9
:10104000A0EB0A0064283DD80A480068C005F5D521
:101050007DBBDFF81CA0B4F8B0200AF1200ADAF852
:10106000001002F4407001F4407105E02C44025875
:101070005044025800480258814211D0DAF800105A
:10108000DAF8002021F4407142F48032CAF80020DE
:10109000DAF8002022F48032CAF80020CAF80010E2
:1010A000D4F8B000B0F5807F21D1FFF7AFFB0190FD
:1010B00019E008E0FFF7AAFB0199411A41F28830D4
:1010C000814210D903252E462078DFF844A4C007BA
:1010D0003DD0A06F182838D026DC80B3082829D04E
:1010E000102825D12CE0DAF800008007E2D5D4F8EA
:1010F000B010C1F30120032858460DD0016821F437
:101100007C510160B4F8B020DAF80010C2F30B0291
:101110001143CAF80010D7E7FE4A036802EA111229
:1011200023F47C511143ECE720280ED028280CD062
:1011300001250BE00121201D01F026F804E004E068
:101140000098012101F0B0F805465DB12E462078E7
:1011500080071ED5606F062819D2DFE800F0160C54
:1011600011161616A26FDAF8001021F0380111439B
:10117000CAF80010EBE70121201D01F005F803E09B
:101180000098012101F090F8054675B100E00125B5
:101190002E46207840071FD5D4F89000062819D293
:1011A000DFE800F0160C11161616626FDAF8001060
:1011B00021F007011143CAF80010EAE70121201DC0
:1011C00000F0E2FF03E00098012101F06DF8054610
:1011D0009DB100E001252E46207880062BD5D4F85D
:1011E0008C00B0F1405F24D011DC10B3B0F1805F0F
:1011F00015D0B0F1005F10D116E0D4F89020D9F8E6
:10120000001021F007011143C9F80010E4E7B0F124
:10121000804F0ED0B0F1A04F0BD001250AE0002185
:10122000201D00F0B1FF03E00098022101F03CF81E
:1012300005468DB12E46207840062BD5D4F898006F
:10124000B0F5406F24D011DC10B3B0F5806F15D02D
:10125000B0F5006F10D116E0D4F88C20DAF8001049
:1012600021F0E0411143CAF80010E4E7B0F5805FD7
:101270000ED0B0F5A05F0BD001250AE00021201DA3
:1012800000F082FF03E00098022101F00DF805460E
:101290008DB12E46207800062BD5D4F89C00B0F5F1
:1012A000C04F24D011DC10B3B0F5005F15D0B0F5FD
:1012B000804F10D116E0D4F89820D9F8001021F40E
:1012C000E0511143C9F80010E4E7B0F5004F0ED02B
:1012D000B0F5204F0BD001250AE00021201D00F0C1
:1012E00053FF03E00098022100F0DEFF05464DB1F8
:1012F0002E46207800071ED5D4F88000B0F5805F18
:101300000AD00FE0D4F89C20D9F8001021F46041F5
:101310001143C9F80010ECE70098022100F0C4FF67
:1013200000B10126D4F88020DAF8001021F44051F1
:101330001143CAF800102078C00613D5D4F89400E1
:10134000B0F5807F05D10098022100F0ADFF00B11B
:101350000126D4F89420D9F8001021F440711143EB
:10136000C9F800102068000316D5D4F8A00038B1E1
:10137000B0F5803F09D0B0F5003F0BD001250AE061
:101380000021201D00F000FF03E00098022100F082
:101390008BFF054685B12E462068400322D5D4F840
:1013A0008400B0F5801F11D0B0F5001F13D0B0F548
:1013B000401F15D0012514E0D4F8A020D9F8001062
:1013C00021F440311143C9F80010E5E7386840F4D2
:1013D0000030386004E00098012100F065FF054608
:1013E00055B12E462068C0031CD5E06C70B1B0F535
:1013F000803F10D0012514E0D4F88420DAF80010E2
:1014000021F440111143CAF80010EBE7386840F4AA
:101410000030386004E00221201D00F0B5FE0546D2
:10142000CDB12E462068800005D50098022100F03D
:101430003BFF00B10126206880031BD5E06FB8B1E7
:10144000B0F5807F10D0B0F5007F11D0B0F5407FAF
:101450000ED001250DE02E48E26C0838016821F419
:10146000803111430160DDE7386840F400303860B6
:10147000F5B32E462068C00207D5226FD8F80010B9
:1014800021F000411143C8F800102068C00008D5C1
:10149000D4F8B420DBF8001021F480411143CBF8DC
:1014A00000102068800207D5A26ED8F8001021F045
:1014B00080711143C8F80010206840000CD5DBF89B
:1014C000001021F40041CBF80010DBF80010D4F834
:1014D000B8201143CBF800102068002807DA0C4828
:1014E000226D0838016821F040511143016000E08D
:1014F00014E02068000208D5D4F88820DAF800103B
:1015000021F440011143CAF8001086B1012003E024
:1015100054440258CFFFFF00BDE8FC9FE26FDAF8A9
:10152000001021F440711143CAF80010A2E7002016
:10153000EDE700002DE9F05F04000F467ED0DFF8F4
:101540003882D8F8000000F00F00B8420CD2D8F86A
:10155000001021F00F013943C8F80010D8F800003E
:1015600000F00F00B84269D12078844D40070AD5B9
:101570002069296801F07001884204D9296821F0A6
:1015800070010143296020787C4E361D00070AD582
:101590006069316801F07001884204D9316821F036
:1015A0007001014331602078C0060AD5A069316816
:1015B00001F4E061884204D9316821F4E06101431B
:1015C00031602078DFF8B4B180060BF1080B0CD540
:1015D000E1695846DBF8002002F07002914204D91C
:1015E000026822F070020A430260207880070AD560
:1015F000E068296801F00F01884204D9296821F0C8
:101600000F01014329602078C0073ED05B49A268E2
:101610002868183920F47060104328606068022838
:1016200018D0032819D00968012819D049070029C2
:101630004ADADFF848A1AAF1080A00E044E0DAF843
:10164000002022F007020243CAF80020FFF7DEF86C
:10165000814612E009688903E9E709688901E6E73C
:10166000C905E4E7FFF7D2F8A0EB090141F28830A1
:10167000814202D90320BDE8F09F6168DAF80000DA
:1016800000F03800B0EBC10FECD1207880070AD50C
:10169000E068296801F00F01884204D2296821F02E
:1016A0000F0101432960D8F80010404601F00F01F6
:1016B000B9420BD9016821F00F013943016000687C
:1016C00000F00F00B84201D00120D4E72078400795
:1016D0000AD52069296801F07001884204D229687E
:1016E00021F0700101432960207800070AD5606964
:1016F000316801F07001884204D2316821F0700134
:10170000014331602078C0060AD5A069316801F430
:10171000E061884204D2316821F4E0610143316024
:10172000207880060CD5E1695846DBF8002002F0ED
:101730007002914204D2026822F070020A430260F1
:1017400000F06CF80E492A682B68C2F3032203F0FC
:101750000F038A5CC95C02F01F0201F01F01D04038
:10176000084A20FA01F1116007490860074800683B
:10177000BDE8F05FFFF786B8002000521844025819
:1017800094430008080000240400002410000024F2
:1017900030B500F043F80B4A0B490C4B1568146840
:1017A000C5F3032204F00F048A5C095D02F01F02F6
:1017B00001F01F01D040064A20FA01F119601060C3
:1017C000084630BD1844025894430008080000241D
:1017D0000400002400B5FFF7DBFF05490968054A4E
:1017E000C1F30211515C01F01F01C84000BD0000AF
:1017F0001C4402589443000800B5FFF7C9FF05498F
:101800000968054AC1F30221515C01F01F01C8407B
:1018100000BD00001C44025894430008454970B5BF
:1018200045480968434B103B11F0380208D00111BC
:10183000082A03D0102A0BD0182A0BD0084670BDF6
:1018400019688906FBD51968C1F3C101C84070BD8C
:101850003A4870BD3749374D18310C1D24350A6898
:10186000096826682D6802F0030406F00102C1F33E
:101870000511C5F3CC0515FB02F200EE102AB8EEF7
:10188000400AE9B32F4ADFED2E0AB7EE001A6CB119
:10189000DFED2D1A012C01D0022C43D002EE101ADC
:1018A0001068F8EE422A81EEA22A1EE01C68A40607
:1018B00011D51B6801EE901A1168C3F3C103F8EE4D
:1018C000612AD84001EE900AC1F30800F8EE611ACF
:1018D00081EEA22A0BE001EE901ADFED1C2A00BF78
:1018E000F8EE611A106882EEA12AC0F3080001EE3A
:1018F000900AF8EE611A40EE201A31EE810A00E0FB
:1019000015E022EE000A1068C0F34620401C00EEED
:10191000900AF8EE600A80EE201ABCEEC10A10EEC2
:10192000100A70BD01EE901ADFED092AD8E70020F9
:1019300070BD0000104402580090D00340787D0133
:1019400000000039304402580024744A0024744CCA
:1019500020BCBE4B2DE9F05F04007DD0FF4F207806
:10196000FE4D1837DFF8F493103DC00748D0D9F882
:101970000000396800F03800102815D0182803D16D
:1019800001F0030002280FD06068B0F5803F12D04C
:1019900010B1B0F5A02F18D0286820F4803028604E
:1019A000286820F4802009E02868800328D5606832
:1019B0000028D2D024E0286840F480302860606895
:1019C00088B1FEF723FF064609E0286840F480202E
:1019D0002860F0E7FEF71AFF801B64286FD828689C
:1019E0008003F7D50CE0FEF711FF064605E000BFC7
:1019F000FEF70CFF801B6428F0D828688003F7D41A
:101A0000207841F20308D54E0C3E800769D5D9F8FD
:101A10000000396810F038000ED0182801D188076E
:101A20000AD0E06890B3296821F0190101432960C8
:101A3000FEF7ECFE824631E02868400702D5E068F8
:101A400000288AD0E168286820F01900084328603F
:101A5000FEF7DCFE824607E0DFE000BFFEF7D6FEC1
:101A6000A0EB0A000228B9D828684007F6D500BFC5
:101A7000FEF7C6FE40451BD82069402812D03168C9
:101A800021F47C3141EA003030602AE018E000BFE8
:101A9000FEF7BCFEA0EB0A0002289FD8286840078A
:101AA000F6D5E5E7306820F47C3040F40030EBE711
:101AB000207C316821F0FE4141EA0060E4E70DE15D
:101AC000286820F001002860FEF7A0FE824605E0AD
:101AD000FEF79CFEA0EB0A0002288DD8286840077C
:101AE000F6D42078C0065DD5D9F80000DFF86CB2D6
:101AF000396800F03800ABF1040B082810D0182822
:101B000003D101F0030001280AD0E0690028286809
:101B100038D040F080002860FEF778FE824623E04F
:101B20002868C00523D5E069802876D11FE0206AA7
:101B3000202821D0316821F0F84141EA80603060EE
:101B400030E000BF94F82010DBF8002022F07C5237
:101B500042EA0161CBF8001024E000BFFEF756FE18
:101B6000A0EB0A00022898D82868C005F6D5FEF731
:101B700047FE4045E6D8DAE7306820F0F84040F00C
:101B80008040DCE720F080002860FEF73FFE06463C
:101B900005E000BFFEF73AFE801B02289DD82868AA
:101BA000C005F7D42078000729D56C4861696430F6
:101BB00000298046016811D041F001010160FEF763
:101BC00025FE064605E000BFFEF720FE801B02282A
:101BD000C9D8D8F800008007F6D510E021F001013F
:101BE0000160FEF713FE064605E000BFFEF70EFE9D
:101BF000801B022872D8D8F800008007F6D420781D
:101C0000800623D5A0690028286810D040F48050B1
:101C10002860FEF7FBFD064605E02CE1FEF7F6FD29
:101C2000801B02285AD828688004F7D50EE020F4DB
:101C300080502860FEF7EAFD064604E0FEF7E6FD68
:101C4000801B02284AD828688004F7D420784007EF
:101C50004FD5DFF80C81D8F8001041F48071C8F836
:101C60000010FEF7D3FD064605E000BFFEF7CEFDEF
:101C7000801B642832D8D8F80000C005F6D5374E4E
:101C8000A068603601280AD008B1052813D0306852
:101C900020F001003060306820F0040002E030687D
:101CA00040F001003060A06841F2883A90B1FEF740
:101CB000ADFD80460AE0306840F004003060EEE799
:101CC000FEF7A4FDA0EB0801514507D83068800756
:101CD000F6D50EE0FEF79AFD804607E084E000BFEF
:101CE000FEF794FDA0EB080151457DD830688007D0
:101CF000F6D4606AB0B3DFF86480D9F8001008F158
:101D00002008C1F3C20103296FD00228286820F0FF
:101D10008070286003D0FEF779FD044680E0FEF76E
:101D200075FD064605E000BFFEF770FD801B02282A
:101D300073D828688001F7D4E26A40F2F33138683A
:101D400054F8283F884340EA021018433860217B4A
:101D50004FF4FE0C22894FF0FE4704E01044025875
:101D60000048025889E0208A4902521E267DA1F5CA
:101D7000007189B2401EC2F308021143761E0CEABC
:101D8000004001433E4807EA066211433C4AC8F856
:101D900000100832016821F00101016011684FF65E
:101DA000F876236AB14341EAC30111600168A26970
:101DB00021F00C01114301600168E26921F0020188
:101DC00011430160016841F480310160016841F410
:101DD00000310160016841F480210160016841F037
:101DE00001010160286801E017E01DE040F080700B
:101DF0002860FEF70BFD044605E000BFFEF706FD78
:101E0000001B022809D828688001F7D535E000BFFB
:101E1000FEF7FCFC001B022802D90320BDE8F09F5E
:101E200028688001F4D428E039680128D8F8000037
:101E300021D0A26A01F0030393421CD1E26AC1F3EC
:101E400005118A4217D1216BC0F30802491E8A424C
:101E500011D1616BC0F34622491E91420BD1A16B97
:101E6000C0F30642491E914205D1E16BC0F3066002
:101E7000491E814201D00120D0E70020CEE70000BA
:101E80002C440258401EB0F1807F10B501D30120D0
:101E900010BD4FF0E02460610F21601700F00EFFCD
:101EA0000020A0610721216110BD30B590F880109D
:101EB000012918D0012280F880202421C0F8841044
:101EC0000022202450F8641B0B680D6823F0005397
:101ED00025F001050D60026050F8641C0B6004627F
:101EE0000277104630BD022030BD70B5044690F830
:101EF000800001281DD0012284F880202420C4F80D
:101F0000840020680568026822F0010202602068EF
:101F1000826822F060620A438260204600F0CEFAB6
:101F20002268202100201560C4F8841084F8800005
:101F300070BD022070BD70B5044690F88000012885
:101F40001DD0012284F880202420C4F88400206859
:101F50000568026822F0010202602068826822F0AF
:101F600060420A438260204600F0A8FA22682021DD
:101F700000201560C4F8841084F8800070BD022031
:101F800070BD10B5040003D0D4F8840010B107E090
:101F9000012010BD002084F88000204600F026F8C3
:101FA0002420C4F884002068016821F00101016048
:101FB000204600F039FB0128EBD0A06A10B1204682
:101FC00000F09EFA2068416821F490414160206849
:101FD000816821F02A0181602068016841F00101D7
:101FE00001602046BDE8104000F0EEBA10B5B6B072
:101FF000044614212FA8FEF715FABC216846FEF707
:1020000011FA18492068884229D104200090002440
:1020100068462494FEF724FE08B1FEF7D3FA12486E
:10202000016841F008010160006800F00800349088
:102030000D481438016841F00101016000682FABC0
:10204000022100F0010034904FF4C060032283E8C5
:10205000130006482FA9CDE93242FEF7B5FA36B093
:1020600010BD0000000C0058F44402580000025853
:102070002DE9F8430446D0F884001F4616460D4665
:10208000202852D1DDB1D6B194F8800001284CD07F
:10209000012084F8800021224FF00008C4F88C80D1
:1020A000C4F884201834FEF7B1FB814654F8100CB4
:1020B000A687E687183CB0F5805F03D004E00120D6
:1020C000BDE8F883206920B12E46002584F8808081
:1020D00010E00026FAE78021204600F07BFCB8B92A
:1020E000C6B116F8010B21688862B4F85600401E8C
:1020F000A4F85600B4F856004B464FF00002009783
:102100000028E8D14FF04001204600F063FC38B1D0
:102110000320D5E735F8020B2168C0F30800E3E798
:102120002020C4F884000020CAE70220C8E7FEE7A8
:1021300008B5104D0120104C4FF0FF3600900023E1
:1021400032466946A86801F0E9FD01280BD00B482A
:10215000552100F0A3FD00980128F0D1606980F0BE
:1021600008006061EBE706485121009A00F096FDF7
:10217000F1E700001800002400100258CC430008CA
:1021800014440008FEE7FEE72DE9F047454D0446FC
:1021900089464FF0000A2868C04380070AD0414EA4
:1021A000283E306820F080603060FEF72FFB074645
:1021B000B04608E00120BDE8F08700BFFEF726FB2F
:1021C000C01B022867D8D8F800000001F6D42068A8
:1021D00029684FF4FE0721F47C313E0241EA0030C9
:1021E0002860207AA389B4F804C040022D4D2D49FF
:1021F0005B1E227CACF1010C1035091DA0F50070AE
:1022000080B2521ECCF3080C07EA034340EA0C00EC
:10221000184306EA0262104328600868626920F0E9
:10222000C000104308600A68A06922F0200202433F
:102230000A60281D0A6822F010020A6002684FF640
:10224000F873E4699A4342EAC40202600868B9F18B
:10225000000F40F010020A6011D00868B9F1010FB8
:1022600011D040F400100860D8F80000444640F057
:102270008060C8F80000FEF7C9FA05460DE008685E
:1022800040F40020EFE740F48010ECE7FEF7BEFAE0
:10229000401B022801D903208DE720680001F5D5F5
:1022A000504688E7284402582DE9F047454D04463A
:1022B00089464FF0000A2868C04380070AD0414E83
:1022C000283E306820F080503060FEF79FFA0746C5
:1022D000B04608E00120BDE8F08700BFFEF796FA9F
:1022E000C01B022867D8D8F800008000F6D42088E8
:1022F00029684FF4FE0721F07C713E0241EA00504C
:102300002860207AA389B4F804C040022D4D2D49DD
:102310005B1E227CACF1010C1835091DA0F5007084
:1023200080B2521ECCF3080C07EA034340EA0C00CB
:10233000184306EA0262104328600868626920F4C4
:102340004060104308600A68A06922F400720243EA
:102350000A60281D0A6822F480720A6002684FF63B
:10236000F873E4699A4342EAC40202600868B9F16A
:10237000000F40F480720A6011D00868B9F1010FB3
:1023800011D040F080700860D8F80000444640F05A
:102390008050C8F80000FEF739FA05460DE00868DD
:1023A00040F48000EFE740F40000ECE7FEF72EFA7F
:1023B000401B022801D903208DE720688000F5D555
:1023C000504688E72844025810B501F09BFE0128CA
:1023D00001D001F055FCBDE81040FEF71DBA000029
:1023E0002C48F0B52C4A016841F470010160106876
:1023F00000F00F00072804D2106820F00F00C01D65
:10240000106026490020254C10340B68244D43F001
:1024100001030B6020600B682B400B60136803F016
:102420000F03072B04D9136823F00F03DB1D136080
:102430001A4C1C4A18341C4B261D371D2060174CA3
:102440001A4D28343060261D3860371D23603B1D2F
:1024500035601C1D3A60251D2E1D1860331D22603D
:102460002860326018600A680C4B114C22F48022FC
:1024700060330A60186020686FF30F00B0F1005FEE
:1024800003D20C490120C1F8080143F2D2000A49E5
:102490000860F0BD88ED00E00020005200440258C2
:1024A0007FEDF6EA80020101000202020000FF0156
:1024B0000010005C008000510040005230B5416EB9
:1024C000B9B101680D4B03F108048A688968C2F349
:1024D0004262490F5D5C615C2D01B5FBF1F1A0F832
:1024E0006A10995CA25C0901B1FBF2F1A0F86810D6
:1024F00030BD0121A0F86A10F8E70000BC430008D5
:1025000090F82810C90706D00168C36A4A6822F407
:1025100000321A434A6090F82810890706D50168EE
:10252000036B4A6822F480321A434A6090F82810FC
:10253000490706D50168436B4A6822F480221A4392
:102540004A6090F82810090706D50168836B4A682D
:1025500022F400421A434A6090F82810C90606D5B2
:102560000168C36B8A6822F480521A438A6090F82B
:102570002810890606D50168036C8A6822F4005287
:102580001A438A6090F82810490611D50168436CF7
:102590004A6822F480121A434A60416CB1F5801FE8
:1025A00006D10168836C4A6822F4C0021A434A606B
:1025B00090F82810090606D50168C26C486820F416
:1025C0000020104348607047F8B500260446C0F864
:1025D0008C60FEF71BF9054620686FF07E470068A7
:1025E000000708D500222B464FF400112046009723
:1025F00000F0F0F960B92068006840070AD50022B1
:102600002B464FF480012046009700F0E3F908B113
:102610000320F8BD2020C4F88400C4F88800E666D2
:10262000002084F88060F8BD2DE9F04304468068FE
:10263000D84E87B0D84B2168D4E90427D4F81CC001
:1026400010430A68002547EA0C073843324002432A
:102650000A602068E268416821F4405111434160FA
:102660002268A1699A4201D0206A01439768DFF885
:102670002CC3CB4ECB4807EA0C070F439760216869
:10268000676ACA6A22F00F023A43CA622268B242FB
:102690000ED1006800F03800182873D047DCB8B3BA
:1026A000082879D010286FD178E028287ED17BE0E7
:1026B000BD498A4209D1006800F00700062875D29A
:1026C000DFE800F0546A6C6E7072B8498A4209D132
:1026D000006800F00700062868D2DFE800F0475DD8
:1026E0005F616365B2498A4209D1006800F0070062
:1026F00006285BD2DFE800F03A5052545658AD49F4
:102700008A420BD1006800F0070006284ED200E094
:1027100010E0DFE800F02B4143454749A6498A42D3
:102720000AD1006800F03800182839D0B7DD202819
:10273000BBD13CE001203AE0A0498A4209D10068BF
:1027400000F00700062831D2DFE800F01026282A22
:102750002C2E9B498A420BD1006800F00700062806
:1027600024D2DFE800F003191B1D1F2100201EE00A
:102770009A421BD18B48001D006800F00700062814
:1027800014D202E00CE007E010E0DFE800F00305FF
:1027900007090B0D02200AE0042008E0082006E0EB
:1027A000102004E0202002E0402000E08020854945
:1027B000DFF814829A42854A4FF400434FEA21170A
:1027C0004FF000064ED110281AD006DC022809D09E
:1027D00004280BD008287CD10DE020283ED04028CA
:1027E00077D13DE0FEF7E6F8014610E06846FEF7D7
:1027F000F3F801990BE003A8FEF790F9049906E0BD
:102800001068800605D51068C0F3C100C1400029DA
:1028100070D0606A676838F8102007EB4703B1FB97
:10282000F2F0834255D8B0EB073F52D80023084658
:102830001946FDF7ADFD02467808130E120243EA71
:10284000012110183A4671410023FDF7A1FD604AAD
:10285000A0F5407191423CD821688FE03946D8E715
:102860001946D6E7D4F81CC04FF6EF799C4546D1FF
:10287000082819D005DC58B101280CD0042875D1DE
:102880000DE0102815D0202835D040286ED134E036
:10289000FEF7A0FF01E0FEF7AFFF014610E068463B
:1028A000FEF79AF801990BE003A8FEF737F90499AF
:1028B00006E01068800604D51068C0F3C100C1406E
:1028C000C1B1636A606838F81330B1FBF3F14900B5
:1028D00000E04BE001EB5001B1FBF0F0A0F1100182
:1028E000494543D84FF6F0732168C0F342021840BF
:1028F000104343E043E03946E3E71946E1E708289F
:1029000019D005DC58B101280CD004282ED10DE0D7
:10291000102815D020282BD0402827D12AE0FEF7F8
:1029200059FF01E0FEF768FF014610E06846FEF738
:1029300053F801990BE003A8FEF7F0F8049906E0BC
:102940001068800604D51068C0F3C100C140B1B161
:10295000636A606838F81330B1FBF3F101EB5001A2
:10296000B1FBF0F0A0F11001494505D9012506E0C1
:102970003946EDE71946EBE7216880B2C8600120CF
:10298000A4F86A00A4F8680028462667666707B0BE
:10299000BDE8F083F369FFCF000C0058FFF4FF118E
:1029A00000100140544402580044004000480040D8
:1029B000004C0040005000400014014000780040EE
:1029C000007C00400090D003A4430008004402585B
:1029D000FFFC0F002DE9F0479A4617460E460446C5
:1029E000089D4FF000094FF020084CE0681C4AD0C9
:1029F000FDF70CFFA0EB0A00A8422AD84DB32068CF
:102A0000016849073FD5C069C04300053BD4216830
:102A10004FF400600862216851E8000F20F4D07084
:102A200041E80002002AF6D12068083050E8001F73
:102A300021F0010140E80012002AF5D1C4F8848099
:102A400084F88090C4F88880C4F88C800320BDE8A6
:102A5000F087206850E8001F21F4D07140E8001290
:102A6000002AF6D12068083050E8001F21F001014B
:102A700040E80012002AF5D1C4F8848084F88090E0
:102A8000C4F88880E2E72068C06936EA000004D014
:102A90000020B842AAD00020D9E70120F9E7FEE7DC
:102AA00030B587B0FDF7C0FE0320FDF747FF234890
:102AB000016841F080010160016801F08001059129
:102AC000016841F004010160016801F00401059111
:102AD000016841F010010160016801F010010591E9
:102AE000016841F00401016000680224144D0821CE
:102AF00000F0040005900120CDE90204CDE90010AA
:102B000069462846FDF760FD20034FF488118DE8E3
:102B100013000C486946FDF757FD002207212820C5
:102B2000FDF7ECFE2820FDF7DBFE012228460821F8
:102B3000FDF760FE07B0002030BD0000E044025801
:102B400000100258000802581848002110B5164C11
:102B50000C224FF4E1330460C0E90131C160C0E9E7
:102B6000041281610162416281624166FFF709FAE4
:102B700008B1FDF727FD0D480021FFF7DCF908B18A
:102B8000FDF720FD09480021FFF7AFF908B1FDF777
:102B900019FD0648FFF789F9002803D0BDE8104069
:102BA000FDF710BD10BD0000000C00588C00002483
:102BB00070B59CB04C216846FDF734FC202113A869
:102BC000FDF730FCFDF730FE0220FDF7C9FE21487D
:102BD00000242149026842F44042026002680A6807
:102BE00042F001020A60096801F001011B910168CD
:102BF0008904FCD50DF1280C022009900521C02282
:102C00008CE80700C6030F9008250D9001230E9055
:102C1000CDE91054CDE9003668461294FEF79AFECD
:102C200008B172B6FEE740201A903F210301CDE9BA
:102C300016500322CDE9180313AB13A883E816003E
:102C40000421FEF777FC002801D072B6FEE71CB025
:102C500070BD0000184802582C0400580949012092
:102C60001CB500234202CDE900010B4806A101F08A
:102C70001DFA012802D04FF0FF301CBD00F000FF0C
:102C800000201CBD180000244170705461736B4318
:102C90007265617465000000C90400080FB4054B3B
:102CA00010B503A9044A029800F028F810BC5DF89A
:102CB00014FB0000413000088800002409070028A8
:102CC0004FEA116104DB00F1E02080F80014704746
:102CD00000F00F0000F1E02080F8141D704702E0C2
:102CE00008C8121F08C1002AFAD170477047002097
:102CF00001E001C1121F002AFBD170472DE9FF4FEF
:102D00008BB088460546002606E025280BD0DDE975
:102D10000D1290476D1C761C28780028F5D10FB055
:102D20003046BDE8F08F0024A146A2460122AE49FC
:102D300000E0044315F8013F203B02FA03F008428B
:102D4000F7D128782A2810D06FF02F022878A0F128
:102D50003001092915D809EB890102EB410144F042
:102D6000020400EB01096D1CF0E758F8041B5FEA50
:102D7000010903D544F40054C9F1000944F00204E8
:102D80006D1C28782E2817D115F8010F44F0040483
:102D90002A280ED06FF02F022878A0F130010929DF
:102DA0000AD80AEB8A0102EB410100EB010A6D1C13
:102DB000F2E758F804AB6D1C28786C280FD006DCBD
:102DC0004C2817D068280DD06A2814D104E0742844
:102DD00010D07A280FD10DE044F400140AE044F436
:102DE000801401E044F440146978814202D104F572
:102DF00080146D1C6D1C2878692865D006DC0028BD
:102E00008DD0632827D0642806D15DE06E2808D0D5
:102E100073282AD0752877D0DDE90D129047761CEB
:102E2000E0E0C4F30250022809D003280DD0D8F8FE
:102E3000001004280DD00E6008F10408D2E0D8F884
:102E40000010F217C1E90062F6E7D8F800100E8012
:102E5000F2E70E70F0E718F8041B8DF80010002060
:102E60008DF80100EB46012003E058F804BB4FF059
:102E7000FF3061074FF0000701D40AE07F1C57457F
:102E80000DDA8742FADB1BF807100029F6D106E0BD
:102E90007F1C8742FCDB1BF807100029F8D1DDE915
:102EA0000D23A9EB07008146214600F0B1F830441C
:102EB000C61904E0DDE90D121BF8010B90477F1ED7
:102EC000F8D22146484688E058F8040BC4F3025172
:102ED0004FF00A0B032900D100B2042900D140B2FF
:102EE000002802DA40422D2102E0210505D52B21E0
:102EF0008DF82410012104E006E0E10710D0202124
:102F0000F6E708AF089113E058F8040BC4F3025138
:102F10004FF00A0B032900D180B2042900D1C0B2BE
:102F20000021EEE75946FDF788FA303107F8011D18
:102F30000028F7D1ADEB070000F1200B600702D5A8
:102F400024F4803401E04FF0010ADA4502DDAAEBF7
:102F50000B0000E00020824600EB0B0108980144C2
:102F6000A9EB01000A90E00306D4DDE90D23214618
:102F70000A9800F04DF806444FF0000908E009A94E
:102F800011F80900DDE90D12904709F10109761CDD
:102F900008998945F3DBE0030CD5DDE90D232146D3
:102FA0000A9800F035F8064404E0DDE90D123020FF
:102FB0009047761CBAF10001AAF1010AF5DC05E0A0
:102FC000DDE90D1217F8010B9047761CBBF10001EB
:102FD000ABF1010BF4DC0A982146DDE90D2300F08A
:102FE00005F806446D1C97E6092801002DE9F0411B
:102FF000044600251E461746880404D405E03946D9
:103000002020B0476D1C641EF9D52846BDE8F0812C
:103010002DE9F041044600251E469046C80301D51F
:10302000302700E02027880404D505E041463846D3
:10303000B0476D1C641EF9D52846BDE8F08100003C
:1030400013B5044801224FF47A736946FFF710F86C
:1030500000981CBD8C000024FFF7AAFDFFF720FD9F
:10306000FFF772FDFFF7FAFDFEE700002DE9F041E2
:10307000184C0F460546E6682068001D00F0ECFA83
:1030800038B922680121206992F82C2091408843A8
:103090002061681C07D137B12168BDE8F0410E48B6
:1030A000091D00F011BB20683544B5424560216818
:1030B00005D2A06B091DBDE8F04100F0EDBA606BD0
:1030C000091D00F0E9FAA06A854200D2A562BDE8B8
:1030D000F081000028000024EC0300242DE9F041D9
:1030E000054600F0FDFA2D4C2D4FA068401CA06055
:1030F000206810B1606930B32BE02560A06801281A
:1031000027D1002606EB860007EB800000F0B6FA18
:10311000761C202EF6D3234800F0B0FA2148143054
:1031200000F0ACFA1F48283000F0A8FA1D483C30E7
:1031300000F0A4FA1B48503000F0A0FA1948606370
:103140001430A06305E0E86A2168C96A814200D8AA
:1031500025600120616A491C6162E96A2269884030
:103160001043206101EB8100291D07EB800000F076
:10317000ABFA00F0F3FA606900280CD02068E96A25
:10318000C06A884207D208494FF080500860BFF3F8
:103190004F8FBFF36F8FBDE8F0810000280000243F
:1031A0001C0100249C03002404ED00E070B5114EC6
:1031B000114C17E000F0AEFC3068B8B101F074F8C3
:1031C00000F08EFAF068C568281D00F045FAA06886
:1031D000401EA0606068401E606000F0BFFA284694
:1031E00000F04CF860680028E4D170BD01F05CF894
:1031F000F8E70000D80300242800002430B4026C53
:103200000B46002A0BD0C16844681144C160A1423A
:1032100001D30168C160184630BCFDF7EAB830BC84
:1032200070472DE9F041856B1646026C0446002775
:10323000FAB17EB1E068FDF7DCF8E168206C226845
:10324000091AE160914202D26168081AE060022E18
:103250000DD00EE0A068FDF7CCF8D4E90110226C87
:103260001044A060884204D32068A06001E005B14A
:103270006D1E6D1CA5633846BDE8F08110B504468F
:10328000006B00F09DFA2046BDE8104000F098BAAF
:1032900011484FF4104110B5420706D00E49C01D29
:1032A00020F00700411AC1F510410C4C00230144E5
:1032B0000839A4F1100221F00701C4E900030C1A37
:1032C00011604B600B60C0E9001494604FF0004146
:1032D0005460D16010BD0000000400248000002470
:1032E000074C4FF08056074DFFF760FF206801281C
:1032F000FAD92E60BFF34F8FBFF36F8FF4E7000052
:103300001C01002404ED00E02DE9F047DDE909840B
:103310000E4682466FF00301089D01EB820199463B
:10332000206B084420F00707780705D019A140F268
:103330002B321EA0FFF7B2FC00202218315C82F86D
:103340003410315C11B1401C1028F6D3002684F8EB
:103350004360202D00D31F25E562201D00F099F960
:1033600004F1180000F095F96664C5F12000A06131
:1033700084F848604A46246151463846646200F049
:1033800053F9B8F1000F206001D0C8F80040BDE843
:10339000F08700002E2E5C4672656552544F535CD8
:1033A0007372635C7461736B732E63004572726F2A
:1033B000723A25732C25640D0A00000030B51149BE
:1033C00000E011460A688242FBD34B685C188442D5
:1033D00003D14468084623444B6043681D18954256
:1033E00009D1084C103C2468A24209D052681A4402
:1033F00042600A6812680260814200D0086030BDF5
:103400000460F9E78000002410B5044600F068F974
:10341000A06B28B15FF0000400F0A0F9204610BDB9
:103420000124F9E70648416B096829B1416BC96875
:10343000C9684968816270474FF0FF31FAE70000C0
:103440002800002409484068401C05D008A140F22B
:10345000091212A0FFF722FC502072B680F31188E7
:10346000BFF34F8FBFF36F8F62B6FEE76400002497
:103470002E2E5C4672656552544F535C706F7274A9
:103480005C525644535C41524D5F434D375C723041
:1034900070315C706F72742E630000004572726F41
:1034A000723A25732C25640D0A0000002DE9F041C5
:1034B000044600F015F994F9455004F1240609E09A
:1034C000606A48B1304600F0A1FE08B100F080FA11
:1034D0006D1E6DB2002DF3DC4FF0FF3684F84560B1
:1034E00000F03CF900F0FCF894F9445004F11007A6
:1034F00009E0206948B1384600F088FE08B100F0C4
:1035000067FA6D1E6DB2002DF3DC84F84460BDE8EF
:10351000F04100F023B900002DE9F04100270446F6
:1035200000F0F8FA324E306808B9FFF7B1FEF068E3
:1035300004424FD1002C4DD0083460070BD004F06A
:103540000700C0F108000444600704D0BF2229A18D
:1035500031A0FFF7A3FB002C3CD07068844239D81F
:103560002348103001460D6801E028460D46696881
:10357000A14202D229680029F7D13168B0468D42B4
:1035800028D007682968016008376868001B102880
:103590000ED92E19700704D0EC2216A11EA0FFF739
:1035A0007DFB6868001B706030466C60FFF706FFAB
:1035B0006A684046D8F80410891AC8F80410D8F888
:1035C0000830994200D281600020D8F80C100A43DC
:1035D000C5E9000200F068FE780705D04FF4967246
:1035E00004A10DA0FFF75AFB3846BDE8F0810000AA
:1035F000700000242E2E5C4672656552544F535C59
:10360000706F72745C4D656D4D616E675C6865616D
:10361000705F342E630000004572726F723A25733A
:103620002C25640D0A00000070B5041F094E231FED
:103630004FF0807521F0010125601C1F1960A0F179
:1036400020010B1F266044380A606FF002051D60E0
:1036500070BD000045340008D0E9013201699A606C
:10366000D0E901235A604A68824201D182684A60E7
:10367000002202610868401E0860704700F10801DE
:103680004FF0FF330022C0E90021C0E9023101619F
:10369000704700210161704730B50B685A1C02D099
:1036A00000F1080202E0026904E02246546825683D
:1036B0009D42FAD953684B6099608A6051600861F5
:1036C0000168491C016030BD42684A6093688B60A4
:1036D00093685960916008610168491C01607047F6
:1036E000502072B680F31188BFF34F8FBFF36F8FF6
:1036F000094962B64868401C486001280AD1074859
:10370000006810F0FF0F05D005A140F2A9120FA02C
:10371000FFF7C4BA704700006400002404ED00E025
:103720002E2E5C4672656552544F535C706F7274F6
:103730005C525644535C41524D5F434D375C72308E
:1037400070315C706F72742E630000004572726F8E
:10375000723A25732C25640D0A00000010B5084C40
:10376000606828B94FF4D87206A111A0FFF796FA45
:103770006068401E606001D180F3118810BD0000B8
:10378000640000242E2E5C4672656552544F535CD3
:10379000706F72745C525644535C41524D5F434D9E
:1037A000375C723070315C706F72742E6300000091
:1037B0004572726F723A25732C25640D0A00000061
:1037C00070B500282AD0164DA0F108046068E96899
:1037D000084205D14FF4A07212A11BA0FFF75EFAB8
:1037E000206828B10FA140F2411217A0FFF756FA46
:1037F0006068E968084211D02268002A0ED1884327
:10380000606000F087F96068696808446860204675
:10381000FFF7D4FDBDE8704000F046BD70BD00006C
:10382000700000242E2E5C4672656552544F535C26
:10383000706F72745C4D656D4D616E675C6865613B
:10384000705F342E630000004572726F723A257308
:103850002C25640D0A000000054864230722016836
:103860004FF0E020B1FBF3F1491E41610261704766
:103870000400002410B5FCF775FD104C10280CD383
:1038800000F1E020217890F8F003884205D20CA1E5
:1038900040F2F22215A0FFF701FA1848A16800686B
:1038A00000F4E060884207D9BDE8104004A140F26E
:1038B00002320EA0FFF7F2B910BD00006400002430
:1038C0002E2E5C4672656552544F535C706F727455
:1038D0005C525644535C41524D5F434D375C7230ED
:1038E00070315C706F72742E630000004572726FED
:1038F000723A25732C25640D0A0000000CED00E0DF
:1039000070B50546FFF7ECFE234C05B92568281D68
:10391000FFF7A2FE58B9E86A204A00EB800152F88E
:10392000211021B92269012181408A432261A86ABC
:1039300018B105F11800FFF78FFE606A401C606245
:103940002068854207D11648291DFFF7BDFE606833
:10395000401C606007E0A068401EA0602846FFF79A
:103960008DFCFFF75FFDFFF7F9FE6069002812D0BC
:10397000206885420FD1206B28B10AA140F2654230
:103980000EA0FFF78BF911494FF080500860BFF38C
:103990004F8FBFF36F8F70BD280000241C010024DF
:1039A000D80300242E2E5C4672656552544F535C3A
:1039B0007372635C7461736B732E63004572726F14
:1039C000723A25732C25640D0A00000004ED00E016
:1039D00001490120C86170472800002470B5040027
:1039E0000D4605D108A140F606320DA0FFF756F9A5
:1039F0000F48016820461831FFF74EFE2846BDE803
:103A000070400121FFF732BB2E2E5C467265655275
:103A1000544F535C7372635C7461736B732E6300F9
:103A20004572726F723A25732C25640D0A000000EE
:103A30002800002410B5040005D106A140F6C132CB
:103A40000AA0FFF72BF90D48016A2160C068606089
:103A500010BD00002E2E5C4672656552544F535CBB
:103A60007372635C7461736B732E63004572726F63
:103A7000723A25732C25640D0A00000028000024EA
:103A80001CB5164800248022234615A1CDE900402C
:103A9000154800F00BFB01280AD0401C1DD102B0D4
:103AA00040F2847211A117A0BDE81040FFF7F6B8EC
:103AB000502072B680F31188BFF34F8FBFF36F8F22
:103AC00062B606484FF0FF322C3801218262416114
:103AD000C460BDE81C4000F065B81CBD5400002463
:103AE00049444C4500000000E13200082E2E5C469F
:103AF00072656552544F535C7372635C7461736B8F
:103B0000732E63004572726F723A25732C25640D13
:103B10000A0000000248016B491C01637047000065
:103B20002800002470B5134C206B10B10120E06117
:103B300070BD0020E061104D2069B0FA80F0C0F146
:103B40001F0000EB800655F8260028B90BA140F6AF
:103B5000F62210A0FFF7A2F805EB860000F108029C
:103B6000416849684160914201D149684160C86833
:103B7000206070BD280000241C0100242E2E5C460D
:103B800072656552544F535C7372635C7461736BFE
:103B9000732E63004572726F723A25732C25640D83
:103BA0000A0000007CB5234DFF2029780191287080
:103BB00028788DF800009DF800109DF8000001F0B5
:103BC000F001814205D01CA140F2631225A0FFF74D
:103BD00065F89DF800100720264C01F05001217077
:103BE000A06005E09DF8001049008DF80010401E0F
:103BF0009DF800100906F5D4000200F4E060A06012
:103C0000019828701C48016841F470010160016846
:103C100041F070410160FFF71FFE00206060FCF77B
:103C200067FB1648016841F040410160FCF750FB1A
:103C300000207CBD00E400E02E2E5C4672656552DB
:103C4000544F535C706F72745C525644535C4152D3
:103C50004D5F434D375C723070315C706F72742E03
:103C6000630000004572726F723A25732C25640D53
:103C70000A0000006400002420ED00E034EF00E0C2
:103C8000502010B572B680F31188BFF34F8FBFF389
:103C90006F8F62B600F044FA18B104494FF08050BB
:103CA0000860002080F3118810BD000004ED00E0E2
:103CB00070B505000E4605D14FF4C4720DA113A0D6
:103CC000FEF7ECFF96B105FB06F04830FFF724FC49
:103CD000040009D004F1480120464EB101600121E1
:103CE000C0E90F5600F0D2F8204670BD0020ECE786
:103CF0000060F4E72E2E5C4672656552544F535CAB
:103D00007372635C71756575652E63004572726FC1
:103D1000723A25732C25640D0A0000002DE9FF4F2F
:103D200004009B4683B08A464FF0000705D14CA1A2
:103D300040F2DC4250A0FEF7B1FFBAF1000F07D10C
:103D4000206C28B146A140F2DD424BA0FEF7A6FF51
:103D500000F0D8F938B9059828B14FF49C6240A119
:103D600045A0FEF79BFFDFF820814FF080564FF013
:103D7000000900BFFFF7B4FCA56B25B3E768514607
:103D80002046FFF73BFABBF1000F14D0606AE760F2
:103D900058B104F1240000BF00F038FA28B1C8F887
:103DA0000060BFF34F8FBFF36F8FFFF7D7FC012089
:103DB00007B0BDE8F08F20696D1EA5630028F4D020
:103DC00004F11000E8E7059808B11FB106E0FFF71D
:103DD000C5FC27E06846FFF72DFE0127FFF7BEFC74
:103DE000FFF798FEFFF77CFC94F94400401C01D1DA
:103DF00084F8449094F94500401C01D184F8459022
:103E0000FFF7ACFC05A9684600F00AF90028204637
:103E10000AD0FFF74BFB00F047FA2046FFF7F4FA11
:103E20000028A7D00020C3E7FFF7EEFA90B105996C
:103E300004F12400FFF7D2FD2046FFF737FB00F026
:103E400033FA002896D1C8F80060BFF34F8FBFF354
:103E50006F8F8FE72046FFF729FB00F025FA89E7EF
:103E60002E2E5C4672656552544F535C7372635CD0
:103E700071756575652E63004572726F723A2573B0
:103E80002C25640D0A00000004ED00E02DE9F04748
:103E900004008A4605D120A140F21B1224A0FEF79F
:103EA000FDFEFFF71DFC21680025D4E90F23D4F89F
:103EB00040C004F1100810460E46401E4FF0FF3976
:103EC00002FB031200FB0C10BAF1000FA563A66001
:103ED00084F8449084F845906260E0600BD04046DE
:103EE000FFF7CCFB04F12400FFF7C8FBFFF736FC1B
:103EF0000120BDE8F08720690028F7D0404600F097
:103F000085F90028F2D00E494FF080500860BFF3C9
:103F10004F8FBFF36F8FE9E72E2E5C4672656552B7
:103F2000544F535C7372635C71756575652E6300E5
:103F30004572726F723A25732C25640D0A000000D9
:103F400004ED00E02DE9F04704001F469046894645
:103F500005D129A140F29F322DA0FEF79FFEB9F1B5
:103F6000000F07D1206C28B14FF4687222A128A05D
:103F7000FEF794FE022F08D1E06B012805D01EA1A8
:103F800040F2A13222A0FEF789FEFFF773FC502019
:103F9000EFF3118672B680F31188BFF34F8FBFF332
:103FA0006F8F62B6A06BE16B884207D3022F05D0FA
:103FB0005FF0000086F31188BDE8F08794F9455062
:103FC0003A4649462046FFF72CF9681C04D06D1C80
:103FD00084F845500120EDE7606A0028FAD004F12A
:103FE000240000F013F90028F4D0B8F1000FF1D04C
:103FF0000121C8F80010EDE72E2E5C46726565526F
:10400000544F535C7372635C71756575652E630004
:104010004572726F723A25732C25640D0A000000F8
:1040200070B504000D4605D115A140F6CB321AA09B
:10403000FEF734FE2DB912A140F6CC3216A0FEF7E1
:104040002DFEFFF74DFB184A2868D168431C0FD09E
:104050002368126A934202D062688A420AD962686F
:10406000891A814206D2401A28602046FFF7E2FCF6
:10407000002400E00124FFF771FB204670BD000022
:104080002E2E5C4672656552544F535C7372635CAE
:104090007461736B732E63004572726F723A25738D
:1040A0002C25640D0A000000280000242DE9FF5F84
:1040B000994616468A4683469000DDE90E87FFF74B
:1040C0002BFA05001AD04C20FFF726FA040012D074
:1040D00000212563CDE900874B463246CDE90241F8
:1040E00051465846FFF710F92046FEF7F7FF01202A
:1040F00004B0BDE8F09F2846FFF762FB4FF0FF30A9
:10410000F6E700000548416919B1006B18B10020BD
:1041100070470120704702207047000028000024EB
:104120002DE9F0412D4C206B002740B1A069401CC7
:10413000A061E06900B101273846BDE8F081E6687A
:10414000761CE66011D1606B006828B124A140F6AE
:10415000D91229A0FEF7A2FD606BA16B6163A06379
:10416000206A401C2062FFF75DF9DFF89C80A06A9E
:10417000864209D3606B006880B1606BC068C56817
:10418000686886420DD2A0622068C06A00EB800198
:1041900058F821000128CCD90127CAE74FF0FF3099
:1041A000F1E7281DFFF758FAA86A18B105F11800C1
:1041B000FFF752FAE86A0121226981401143216127
:1041C00000EB800108EB8100291DFFF77DFA2068D4
:1041D000E96AC06A8142CDD30127CBE728000024D9
:1041E0002E2E5C4672656552544F535C7372635C4D
:1041F0007461736B732E63004572726F723A25732C
:104200002C25640D0A0000001C0100242DE9F0415A
:10421000C068C4682CB917A140F661321BA0FEF734
:104220003DFD04F118000746FFF716FA1B4D012665
:10423000286B60B11A483946FFF746FAE06A2968E8
:10424000C96A884213D90120EE61BDE8F081201DC2
:10425000FFF702FAE06A2A6906FA00F111432961C0
:10426000104900EB800001EB8000211DE4E70020F5
:10427000EBE700002E2E5C4672656552544F535C8E
:104280007372635C7461736B732E63004572726F3B
:10429000723A25732C25640D0A00000028000024C2
:1042A000C40300241C0100242DE9F0472C4D286B89
:1042B0000024264628B92BA14FF4FD622FA0FEF75B
:1042C000EDFCFFF70DFA286B401E2863286BE8BB56
:1042D0002E4F0120A968C9B3A7F52A79804638680E
:1042E000E8B1F868C46804F11800FFF7B5F9201DBB
:1042F000FFF7B2F9E06A2A6908FA00F1114329616F
:1043000000EB800109EB8100211DFFF7DDF9296831
:10431000E06AC96A8842E2D3C5F81C80DFE70CB1C5
:10432000FFF780F8AC694CB14FEA0807FFF7F8FED9
:1043300000B1EF61641EF9D10020A861E86928B1DD
:10434000134901264FF08050086000E003E0BFF3FE
:104350004F8FBFF36F8FFFF701FA3046BDE8F0874C
:10436000280000242E2E5C4672656552544F535C23
:104370007372635C7461736B732E63004572726F4A
:10438000723A25732C25640D0A000000C403002432
:1043900004ED00E000000000010203040102030438
:1043A00006070809010002000400060008000A00D0
:1043B0000C001000200040008000000101010103FA
:1043C00007010000080402040801010146696C6548
:1043D0003A202E2E5C536F6674776172655C617053
:1043E000705F7461736B5F656E7472792E632C20DD
:1043F0004C696E653A20253035643A20CFFBCFA258
:10440000B6D3C1D0BDD3CAD53A4552524F520D0A88
:104410000A00000046696C653A202E2E5C536F66D8
:1044200074776172655C6170705F7461736B5F65F6
:104430006E7472792E632C204C696E653A2025309B
:1044400035643A20B4A5B7A2D6D0B6CFB5C4CAC792
:10445000B0B4BCFC25640D0A0A00000046696C6516
:104460003A202E2E5C536F6674776172655C6170C2
:10447000705F7461736B5F656E7472792E632C204C
:104480004C696E653A20253035643A20CFB5CDB3FE
:10449000435055CAB1D6D33A2564487A0D0A0A006A
:1044A00046696C653A202E2E5C536F667477617294
:1044B000655C6170705F7461736B5F656E74727957
:1044C0002E632C204C696E653A20253035643A20E5
:1044D0004C4544205461736B20B4B4BDA8B3C9B932
:1044E000A60D0A0A0000000046696C653A202E2ECF
:1044F0005C536F6674776172655C6170705F746144
:10450000736B5F656E7472792E632C204C696E65D7
:104510003A20253035643A20B6FED6B5D0C5BAC5A6
:10452000C1BF20B4B4BDA8B3C9B9A60D0A0A000022
:1045300046696C653A202E2E5C536F667477617203
:10454000655C6170705F7461736B5F656E747279C6
:104550002E632C204C696E653A20253035643A2054
:10456000CFFBCFA2B6D3C1D020B4B4BDA8B3C9B9D4
:10457000A60D0A0A0000000098450008000000246B
:104580008C000000DE2C0008244600088C0000246B
:1045900074970000EE2C0008010000000090D0038A
:1045A0000090D00301000000100000000000000097
:1045B00000000000000000000000000000000000FB
:1045C00000000000000000000000000000000000EB
:1045D00000000000000000000000000000000000DB
:1045E00000000000000000000000000000000000CB
:1045F00000000000000000000000000000000000BB
:10460000AAAAAAAA00000000000000000000000002
:10461000000000000000000000000000000000009A
:044620000000000096
:040000050800029954
:00000001FF
